{
  "_format": "hh-sol-artifact-1",
  "contractName": "LendingPool",
  "sourceName": "contracts/LendingPool.sol",
  "abi": [
    {
      "inputs": [
        {
          "internalType": "address",
          "name": "_dai",
          "type": "address"
        }
      ],
      "stateMutability": "nonpayable",
      "type": "constructor"
    },
    {
      "inputs": [],
      "name": "AmountCantBeZero",
      "type": "error"
    },
    {
      "inputs": [],
      "name": "InsufficientBalance",
      "type": "error"
    },
    {
      "inputs": [],
      "name": "InsufficientCollateral",
      "type": "error"
    },
    {
      "inputs": [],
      "name": "NotEligibelForLiquidation",
      "type": "error"
    },
    {
      "inputs": [
        {
          "internalType": "address",
          "name": "owner",
          "type": "address"
        }
      ],
      "name": "OwnableInvalidOwner",
      "type": "error"
    },
    {
      "inputs": [
        {
          "internalType": "address",
          "name": "account",
          "type": "address"
        }
      ],
      "name": "OwnableUnauthorizedAccount",
      "type": "error"
    },
    {
      "inputs": [],
      "name": "TransferFailed",
      "type": "error"
    },
    {
      "anonymous": false,
      "inputs": [
        {
          "indexed": true,
          "internalType": "address",
          "name": "_user",
          "type": "address"
        },
        {
          "indexed": true,
          "internalType": "address",
          "name": "_asset",
          "type": "address"
        },
        {
          "indexed": false,
          "internalType": "uint256",
          "name": "_amount",
          "type": "uint256"
        }
      ],
      "name": "Borrow",
      "type": "event"
    },
    {
      "anonymous": false,
      "inputs": [
        {
          "indexed": true,
          "internalType": "address",
          "name": "_user",
          "type": "address"
        },
        {
          "indexed": true,
          "internalType": "address",
          "name": "_asset",
          "type": "address"
        },
        {
          "indexed": false,
          "internalType": "uint256",
          "name": "_amount",
          "type": "uint256"
        }
      ],
      "name": "Deposit",
      "type": "event"
    },
    {
      "anonymous": false,
      "inputs": [
        {
          "indexed": true,
          "internalType": "address",
          "name": "borrower",
          "type": "address"
        },
        {
          "indexed": true,
          "internalType": "address",
          "name": "liquidator",
          "type": "address"
        },
        {
          "indexed": true,
          "internalType": "address",
          "name": "debtAsset",
          "type": "address"
        },
        {
          "indexed": false,
          "internalType": "address",
          "name": "collateralAsset",
          "type": "address"
        },
        {
          "indexed": false,
          "internalType": "uint256",
          "name": "repayAmount",
          "type": "uint256"
        },
        {
          "indexed": false,
          "internalType": "uint256",
          "name": "collateralAmount",
          "type": "uint256"
        }
      ],
      "name": "Liquidation",
      "type": "event"
    },
    {
      "anonymous": false,
      "inputs": [
        {
          "indexed": true,
          "internalType": "address",
          "name": "previousOwner",
          "type": "address"
        },
        {
          "indexed": true,
          "internalType": "address",
          "name": "newOwner",
          "type": "address"
        }
      ],
      "name": "OwnershipTransferred",
      "type": "event"
    },
    {
      "anonymous": false,
      "inputs": [
        {
          "indexed": true,
          "internalType": "address",
          "name": "_user",
          "type": "address"
        },
        {
          "indexed": true,
          "internalType": "address",
          "name": "_asset",
          "type": "address"
        },
        {
          "indexed": false,
          "internalType": "uint256",
          "name": "_amount",
          "type": "uint256"
        }
      ],
      "name": "Withdraw",
      "type": "event"
    },
    {
      "inputs": [],
      "name": "BONUS_DOMINATOR",
      "outputs": [
        {
          "internalType": "uint256",
          "name": "",
          "type": "uint256"
        }
      ],
      "stateMutability": "view",
      "type": "function"
    },
    {
      "inputs": [],
      "name": "COLATERAL_FACTOR",
      "outputs": [
        {
          "internalType": "uint256",
          "name": "",
          "type": "uint256"
        }
      ],
      "stateMutability": "view",
      "type": "function"
    },
    {
      "inputs": [],
      "name": "FACTOR_DENOMINATOR",
      "outputs": [
        {
          "internalType": "uint256",
          "name": "",
          "type": "uint256"
        }
      ],
      "stateMutability": "view",
      "type": "function"
    },
    {
      "inputs": [],
      "name": "INTEREST_RATE_PER_YEAR",
      "outputs": [
        {
          "internalType": "uint256",
          "name": "",
          "type": "uint256"
        }
      ],
      "stateMutability": "view",
      "type": "function"
    },
    {
      "inputs": [],
      "name": "LIQUIDATION_BONUS",
      "outputs": [
        {
          "internalType": "uint256",
          "name": "",
          "type": "uint256"
        }
      ],
      "stateMutability": "view",
      "type": "function"
    },
    {
      "inputs": [],
      "name": "LIQUIDATION_THRESHOLD",
      "outputs": [
        {
          "internalType": "uint256",
          "name": "",
          "type": "uint256"
        }
      ],
      "stateMutability": "view",
      "type": "function"
    },
    {
      "inputs": [
        {
          "internalType": "address",
          "name": "_asset",
          "type": "address"
        }
      ],
      "name": "addSupportedAsset",
      "outputs": [],
      "stateMutability": "nonpayable",
      "type": "function"
    },
    {
      "inputs": [
        {
          "internalType": "address",
          "name": "",
          "type": "address"
        }
      ],
      "name": "assetPrices",
      "outputs": [
        {
          "internalType": "uint256",
          "name": "",
          "type": "uint256"
        }
      ],
      "stateMutability": "view",
      "type": "function"
    },
    {
      "inputs": [
        {
          "internalType": "address",
          "name": "_asset",
          "type": "address"
        },
        {
          "internalType": "uint256",
          "name": "_amount",
          "type": "uint256"
        }
      ],
      "name": "borrow",
      "outputs": [],
      "stateMutability": "nonpayable",
      "type": "function"
    },
    {
      "inputs": [
        {
          "internalType": "address",
          "name": "_asset",
          "type": "address"
        },
        {
          "internalType": "uint256",
          "name": "_amount",
          "type": "uint256"
        }
      ],
      "name": "deposit",
      "outputs": [],
      "stateMutability": "nonpayable",
      "type": "function"
    },
    {
      "inputs": [
        {
          "internalType": "address",
          "name": "_user",
          "type": "address"
        }
      ],
      "name": "getAccountData",
      "outputs": [
        {
          "internalType": "uint256",
          "name": "totalCollateralUsd",
          "type": "uint256"
        },
        {
          "internalType": "uint256",
          "name": "totalBorrowedUsd",
          "type": "uint256"
        },
        {
          "internalType": "uint256",
          "name": "healthFactor",
          "type": "uint256"
        }
      ],
      "stateMutability": "view",
      "type": "function"
    },
    {
      "inputs": [
        {
          "internalType": "address",
          "name": "_user",
          "type": "address"
        },
        {
          "internalType": "address",
          "name": "_asset",
          "type": "address"
        }
      ],
      "name": "getAccruedDebt",
      "outputs": [
        {
          "internalType": "uint256",
          "name": "",
          "type": "uint256"
        }
      ],
      "stateMutability": "view",
      "type": "function"
    },
    {
      "inputs": [
        {
          "internalType": "address",
          "name": "",
          "type": "address"
        },
        {
          "internalType": "address",
          "name": "",
          "type": "address"
        }
      ],
      "name": "lastBorrowTimestamp",
      "outputs": [
        {
          "internalType": "uint256",
          "name": "",
          "type": "uint256"
        }
      ],
      "stateMutability": "view",
      "type": "function"
    },
    {
      "inputs": [
        {
          "internalType": "address",
          "name": "_borrower",
          "type": "address"
        },
        {
          "internalType": "address",
          "name": "_debtAsset",
          "type": "address"
        },
        {
          "internalType": "address",
          "name": "_colatteralAsset",
          "type": "address"
        },
        {
          "internalType": "uint256",
          "name": "_repayAmount",
          "type": "uint256"
        }
      ],
      "name": "liquidate",
      "outputs": [],
      "stateMutability": "nonpayable",
      "type": "function"
    },
    {
      "inputs": [],
      "name": "owner",
      "outputs": [
        {
          "internalType": "address",
          "name": "",
          "type": "address"
        }
      ],
      "stateMutability": "view",
      "type": "function"
    },
    {
      "inputs": [],
      "name": "renounceOwnership",
      "outputs": [],
      "stateMutability": "nonpayable",
      "type": "function"
    },
    {
      "inputs": [
        {
          "internalType": "address",
          "name": "_asset",
          "type": "address"
        },
        {
          "internalType": "uint256",
          "name": "_priceInUsd",
          "type": "uint256"
        }
      ],
      "name": "setAssetPrice",
      "outputs": [],
      "stateMutability": "nonpayable",
      "type": "function"
    },
    {
      "inputs": [
        {
          "internalType": "uint256",
          "name": "",
          "type": "uint256"
        }
      ],
      "name": "supportedAssets",
      "outputs": [
        {
          "internalType": "address",
          "name": "",
          "type": "address"
        }
      ],
      "stateMutability": "view",
      "type": "function"
    },
    {
      "inputs": [
        {
          "internalType": "address",
          "name": "newOwner",
          "type": "address"
        }
      ],
      "name": "transferOwnership",
      "outputs": [],
      "stateMutability": "nonpayable",
      "type": "function"
    },
    {
      "inputs": [
        {
          "internalType": "address",
          "name": "",
          "type": "address"
        },
        {
          "internalType": "address",
          "name": "",
          "type": "address"
        }
      ],
      "name": "userBalances",
      "outputs": [
        {
          "internalType": "uint256",
          "name": "",
          "type": "uint256"
        }
      ],
      "stateMutability": "view",
      "type": "function"
    },
    {
      "inputs": [
        {
          "internalType": "address",
          "name": "",
          "type": "address"
        },
        {
          "internalType": "address",
          "name": "",
          "type": "address"
        }
      ],
      "name": "userBorrows",
      "outputs": [
        {
          "internalType": "uint256",
          "name": "",
          "type": "uint256"
        }
      ],
      "stateMutability": "view",
      "type": "function"
    },
    {
      "inputs": [
        {
          "internalType": "address",
          "name": "_asset",
          "type": "address"
        },
        {
          "internalType": "uint256",
          "name": "_amount",
          "type": "uint256"
        }
      ],
      "name": "withdraw",
      "outputs": [],
      "stateMutability": "nonpayable",
      "type": "function"
    }
  ],
  "bytecode": "0x608060405234801561001057600080fd5b5060405161267e38038061267e83398181016040528101906100329190610245565b33600073ffffffffffffffffffffffffffffffffffffffff168173ffffffffffffffffffffffffffffffffffffffff16036100a55760006040517f1e4fbdf700000000000000000000000000000000000000000000000000000000815260040161009c9190610281565b60405180910390fd5b6100b48161011e60201b60201c565b506001819080600181540180825580915050600190039060005260206000200160009091909190916101000a81548173ffffffffffffffffffffffffffffffffffffffff021916908373ffffffffffffffffffffffffffffffffffffffff1602179055505061029c565b60008060009054906101000a900473ffffffffffffffffffffffffffffffffffffffff169050816000806101000a81548173ffffffffffffffffffffffffffffffffffffffff021916908373ffffffffffffffffffffffffffffffffffffffff1602179055508173ffffffffffffffffffffffffffffffffffffffff168173ffffffffffffffffffffffffffffffffffffffff167f8be0079c531659141344cd1fd0a4f28419497f9722a3daafe3b4186f6b6457e060405160405180910390a35050565b600080fd5b600073ffffffffffffffffffffffffffffffffffffffff82169050919050565b6000610212826101e7565b9050919050565b61022281610207565b811461022d57600080fd5b50565b60008151905061023f81610219565b92915050565b60006020828403121561025b5761025a6101e2565b5b600061026984828501610230565b91505092915050565b61027b81610207565b82525050565b60006020820190506102966000830184610272565b92915050565b6123d3806102ab6000396000f3fe608060405234801561001057600080fd5b50600436106101425760003560e01c806390a8ae9b116100b8578063c68dbb371161007c578063c68dbb3714610379578063ca1871fb146103a9578063eac1377f146103c7578063f2fde38b146103e5578063f3fef3a314610401578063fac09e871461041d57610142565b806390a8ae9b146102c1578063aa948643146102df578063aab3f8681461030f578063adb519801461032b578063bfa045e61461035b57610142565b80635d78650e1161010a5780635d78650e146101e95780635e9a523c1461021b5780635ef73d581461024b578063715018a61461026957806375eacc84146102735780638da5cb5b146102a357610142565b8063234a14f9146101475780633574d4c41461017757806347e7ef24146101955780634b8a3529146101b157806351323f72146101cd575b600080fd5b610161600480360381019061015c9190611ef5565b610439565b60405161016e9190611f4e565b60405180910390f35b61017f61045e565b60405161018c9190611f4e565b60405180910390f35b6101af60048036038101906101aa9190611f95565b610463565b005b6101cb60048036038101906101c69190611f95565b61065d565b005b6101e760048036038101906101e29190611f95565b610b03565b005b61020360048036038101906101fe9190611fd5565b610b53565b60405161021293929190612002565b60405180910390f35b61023560048036038101906102309190611fd5565b610d70565b6040516102429190611f4e565b60405180910390f35b610253610d88565b6040516102609190611f4e565b60405180910390f35b610271610d8d565b005b61028d60048036038101906102889190611ef5565b610da1565b60405161029a9190611f4e565b60405180910390f35b6102ab610dc6565b6040516102b89190612048565b60405180910390f35b6102c9610def565b6040516102d69190611f4e565b60405180910390f35b6102f960048036038101906102f49190611ef5565b610dfb565b6040516103069190611f4e565b60405180910390f35b61032960048036038101906103249190612063565b610f90565b005b61034560048036038101906103409190611ef5565b6110a1565b6040516103529190611f4e565b60405180910390f35b6103636110c6565b6040516103709190611f4e565b60405180910390f35b610393600480360381019061038e91906120ca565b6110cb565b6040516103a09190612048565b60405180910390f35b6103b161110a565b6040516103be9190611f4e565b60405180910390f35b6103cf61110f565b6040516103dc9190611f4e565b60405180910390f35b6103ff60048036038101906103fa9190611fd5565b61111b565b005b61041b60048036038101906104169190611f95565b6111a1565b005b61043760048036038101906104329190611fd5565b61153a565b005b6003602052816000526040600020602052806000526040600020600091509150505481565b600581565b806000810361049e576040517f46f1397d00000000000000000000000000000000000000000000000000000000815260040160405180910390fd5b600083905060008173ffffffffffffffffffffffffffffffffffffffff166323b872dd3330876040518463ffffffff1660e01b81526004016104e2939291906120f7565b6020604051808303816000875af1158015610501573d6000803e3d6000fd5b505050506040513d601f19601f820116820180604052508101906105259190612166565b90508061055e576040517f90b8ec1800000000000000000000000000000000000000000000000000000000815260040160405180910390fd5b83600260003373ffffffffffffffffffffffffffffffffffffffff1673ffffffffffffffffffffffffffffffffffffffff16815260200190815260200160002060008773ffffffffffffffffffffffffffffffffffffffff1673ffffffffffffffffffffffffffffffffffffffff16815260200190815260200160002060008282546105ea91906121c2565b925050819055508473ffffffffffffffffffffffffffffffffffffffff163373ffffffffffffffffffffffffffffffffffffffff167f5548c837ab068cf56a2c2479df0882a4922fd203edb7517321831d95078c5f628660405161064e9190611f4e565b60405180910390a35050505050565b8060008103610698576040517f46f1397d00000000000000000000000000000000000000000000000000000000815260040160405180910390fd5b60008373ffffffffffffffffffffffffffffffffffffffff166370a08231306040518263ffffffff1660e01b81526004016106d39190612048565b602060405180830381865afa1580156106f0573d6000803e3d6000fd5b505050506040513d601f19601f82011682018060405250810190610714919061220b565b905082811015610750576040517ff4d678b800000000000000000000000000000000000000000000000000000000815260040160405180910390fd5b61075a338561163e565b6000600560003373ffffffffffffffffffffffffffffffffffffffff1673ffffffffffffffffffffffffffffffffffffffff16815260200190815260200160002060008673ffffffffffffffffffffffffffffffffffffffff1673ffffffffffffffffffffffffffffffffffffffff16815260200190815260200160002054036108605742600560003373ffffffffffffffffffffffffffffffffffffffff1673ffffffffffffffffffffffffffffffffffffffff16815260200190815260200160002060008673ffffffffffffffffffffffffffffffffffffffff1673ffffffffffffffffffffffffffffffffffffffff168152602001908152602001600020819055505b82600360003373ffffffffffffffffffffffffffffffffffffffff1673ffffffffffffffffffffffffffffffffffffffff16815260200190815260200160002060008673ffffffffffffffffffffffffffffffffffffffff1673ffffffffffffffffffffffffffffffffffffffff16815260200190815260200160002060008282546108ec91906121c2565b9250508190555060006108fe33610b53565b92505050670de0b6b3a76400008110156109d75783600360003373ffffffffffffffffffffffffffffffffffffffff1673ffffffffffffffffffffffffffffffffffffffff16815260200190815260200160002060008773ffffffffffffffffffffffffffffffffffffffff1673ffffffffffffffffffffffffffffffffffffffff168152602001908152602001600020600082825461099e9190612238565b925050819055506040517f3a23d82500000000000000000000000000000000000000000000000000000000815260040160405180910390fd5b600085905060008173ffffffffffffffffffffffffffffffffffffffff1663a9059cbb33886040518363ffffffff1660e01b8152600401610a1992919061226c565b6020604051808303816000875af1158015610a38573d6000803e3d6000fd5b505050506040513d601f19601f82011682018060405250810190610a5c9190612166565b905080610a95576040517f90b8ec1800000000000000000000000000000000000000000000000000000000815260040160405180910390fd5b8673ffffffffffffffffffffffffffffffffffffffff163373ffffffffffffffffffffffffffffffffffffffff167f312a5e5e1079f5dda4e95dbbd0b908b291fd5b992ef22073643ab691572c5b5288604051610af29190611f4e565b60405180910390a350505050505050565b610b0b6118d3565b80600460008473ffffffffffffffffffffffffffffffffffffffff1673ffffffffffffffffffffffffffffffffffffffff168152602001908152602001600020819055505050565b600080600080600090505b600180549050811015610cfe57600060018281548110610b8157610b80612295565b5b9060005260206000200160009054906101000a900473ffffffffffffffffffffffffffffffffffffffff1690506000600460008373ffffffffffffffffffffffffffffffffffffffff1673ffffffffffffffffffffffffffffffffffffffff1681526020019081526020016000205490506000600260008973ffffffffffffffffffffffffffffffffffffffff1673ffffffffffffffffffffffffffffffffffffffff16815260200190815260200160002060008473ffffffffffffffffffffffffffffffffffffffff1673ffffffffffffffffffffffffffffffffffffffff1681526020019081526020016000205490506000811115610ca957670de0b6b3a76400008282610c9191906122c4565b610c9b9190612335565b87610ca691906121c2565b96505b6000610cb58985610dfb565b90506000811115610ced57670de0b6b3a76400008382610cd591906122c4565b610cdf9190612335565b87610cea91906121c2565b96505b505050508080600101915050610b5e565b5060008203610d2f577fffffffffffffffffffffffffffffffffffffffffffffffffffffffffffffffff9050610d69565b81670de0b6b3a76400006064605086610d4891906122c4565b610d529190612335565b610d5c91906122c4565b610d669190612335565b90505b9193909250565b60046020528060005260406000206000915090505481565b606481565b610d956118d3565b610d9f600061195a565b565b6005602052816000526040600020602052806000526040600020600091509150505481565b60008060009054906101000a900473ffffffffffffffffffffffffffffffffffffffff16905090565b670de0b6b3a764000081565b600080600360008573ffffffffffffffffffffffffffffffffffffffff1673ffffffffffffffffffffffffffffffffffffffff16815260200190815260200160002060008473ffffffffffffffffffffffffffffffffffffffff1673ffffffffffffffffffffffffffffffffffffffff16815260200190815260200160002054905060008103610e8f576000915050610f8a565b6000600560008673ffffffffffffffffffffffffffffffffffffffff1673ffffffffffffffffffffffffffffffffffffffff16815260200190815260200160002060008573ffffffffffffffffffffffffffffffffffffffff1673ffffffffffffffffffffffffffffffffffffffff1681526020019081526020016000205490506000811480610f1f5750804211155b15610f2e578192505050610f8a565b60008142610f3c9190612238565b905060006a1a1601fc4ea7109e0000008267016345785d8a000086610f6191906122c4565b610f6b91906122c4565b610f759190612335565b90508084610f8391906121c2565b9450505050505b92915050565b610f9a848461163e565b6000610fa585610b53565b92505050670de0b6b3a76400008110610fea576040517f5eb9dc5900000000000000000000000000000000000000000000000000000000815260040160405180910390fd5b610ff48483611a1e565b610fff858584611ade565b600061100c858585611b76565b9050611019868583611c7c565b8473ffffffffffffffffffffffffffffffffffffffff163373ffffffffffffffffffffffffffffffffffffffff168773ffffffffffffffffffffffffffffffffffffffff167f64f7c2c46814e079964a1934953e50adc025dc52cdbeb7d8e478e9fb9bfd2c2d87878660405161109193929190612366565b60405180910390a4505050505050565b6002602052816000526040600020602052806000526040600020600091509150505481565b606481565b600181815481106110db57600080fd5b906000526020600020016000915054906101000a900473ffffffffffffffffffffffffffffffffffffffff1681565b605081565b67016345785d8a000081565b6111236118d3565b600073ffffffffffffffffffffffffffffffffffffffff168173ffffffffffffffffffffffffffffffffffffffff16036111955760006040517f1e4fbdf700000000000000000000000000000000000000000000000000000000815260040161118c9190612048565b60405180910390fd5b61119e8161195a565b50565b80600081036111dc576040517f46f1397d00000000000000000000000000000000000000000000000000000000815260040160405180910390fd5b6000600260003373ffffffffffffffffffffffffffffffffffffffff1673ffffffffffffffffffffffffffffffffffffffff16815260200190815260200160002060008573ffffffffffffffffffffffffffffffffffffffff1673ffffffffffffffffffffffffffffffffffffffff16815260200190815260200160002054905082811015611297576040517ff4d678b800000000000000000000000000000000000000000000000000000000815260040160405180910390fd5b82600260003373ffffffffffffffffffffffffffffffffffffffff1673ffffffffffffffffffffffffffffffffffffffff16815260200190815260200160002060008673ffffffffffffffffffffffffffffffffffffffff1673ffffffffffffffffffffffffffffffffffffffff16815260200190815260200160002060008282546113239190612238565b92505081905550600061133533610b53565b92505050670de0b6b3a764000081101561140e5783600260003373ffffffffffffffffffffffffffffffffffffffff1673ffffffffffffffffffffffffffffffffffffffff16815260200190815260200160002060008773ffffffffffffffffffffffffffffffffffffffff1673ffffffffffffffffffffffffffffffffffffffff16815260200190815260200160002060008282546113d591906121c2565b925050819055506040517f3a23d82500000000000000000000000000000000000000000000000000000000815260040160405180910390fd5b600085905060008173ffffffffffffffffffffffffffffffffffffffff1663a9059cbb33886040518363ffffffff1660e01b815260040161145092919061226c565b6020604051808303816000875af115801561146f573d6000803e3d6000fd5b505050506040513d601f19601f820116820180604052508101906114939190612166565b9050806114cc576040517f90b8ec1800000000000000000000000000000000000000000000000000000000815260040160405180910390fd5b8673ffffffffffffffffffffffffffffffffffffffff163373ffffffffffffffffffffffffffffffffffffffff167f9b1bfa7fa9ee420a16e124f794c35ac9f90472acc99140eb2f6447c714cad8eb886040516115299190611f4e565b60405180910390a350505050505050565b6115426118d3565b60005b6001805490508110156115d6578173ffffffffffffffffffffffffffffffffffffffff166001828154811061157d5761157c612295565b5b9060005260206000200160009054906101000a900473ffffffffffffffffffffffffffffffffffffffff1673ffffffffffffffffffffffffffffffffffffffff16036115c9575061163b565b8080600101915050611545565b506001819080600181540180825580915050600190039060005260206000200160009091909190916101000a81548173ffffffffffffffffffffffffffffffffffffffff021916908373ffffffffffffffffffffffffffffffffffffffff1602179055505b50565b6000600360008473ffffffffffffffffffffffffffffffffffffffff1673ffffffffffffffffffffffffffffffffffffffff16815260200190815260200160002060008373ffffffffffffffffffffffffffffffffffffffff1673ffffffffffffffffffffffffffffffffffffffff168152602001908152602001600020549050600081036116cd57506118cf565b6000600560008573ffffffffffffffffffffffffffffffffffffffff1673ffffffffffffffffffffffffffffffffffffffff16815260200190815260200160002060008473ffffffffffffffffffffffffffffffffffffffff1673ffffffffffffffffffffffffffffffffffffffff1681526020019081526020016000205490506000810361175d5750506118cf565b6000814261176b9190612238565b90506000810361177d575050506118cf565b60006a1a1601fc4ea7109e0000008267016345785d8a0000866117a091906122c4565b6117aa91906122c4565b6117b49190612335565b905080600360008873ffffffffffffffffffffffffffffffffffffffff1673ffffffffffffffffffffffffffffffffffffffff16815260200190815260200160002060008773ffffffffffffffffffffffffffffffffffffffff1673ffffffffffffffffffffffffffffffffffffffff168152602001908152602001600020600082825461184291906121c2565b9250508190555042600560008873ffffffffffffffffffffffffffffffffffffffff1673ffffffffffffffffffffffffffffffffffffffff16815260200190815260200160002060008773ffffffffffffffffffffffffffffffffffffffff1673ffffffffffffffffffffffffffffffffffffffff16815260200190815260200160002081905550505050505b5050565b6118db611e8a565b73ffffffffffffffffffffffffffffffffffffffff166118f9610dc6565b73ffffffffffffffffffffffffffffffffffffffff16146119585761191c611e8a565b6040517f118cdaa700000000000000000000000000000000000000000000000000000000815260040161194f9190612048565b60405180910390fd5b565b60008060009054906101000a900473ffffffffffffffffffffffffffffffffffffffff169050816000806101000a81548173ffffffffffffffffffffffffffffffffffffffff021916908373ffffffffffffffffffffffffffffffffffffffff1602179055508173ffffffffffffffffffffffffffffffffffffffff168173ffffffffffffffffffffffffffffffffffffffff167f8be0079c531659141344cd1fd0a4f28419497f9722a3daafe3b4186f6b6457e060405160405180910390a35050565b60008273ffffffffffffffffffffffffffffffffffffffff166323b872dd3330856040518463ffffffff1660e01b8152600401611a5d939291906120f7565b6020604051808303816000875af1158015611a7c573d6000803e3d6000fd5b505050506040513d601f19601f82011682018060405250810190611aa09190612166565b905080611ad9576040517f90b8ec1800000000000000000000000000000000000000000000000000000000815260040160405180910390fd5b505050565b80600360008573ffffffffffffffffffffffffffffffffffffffff1673ffffffffffffffffffffffffffffffffffffffff16815260200190815260200160002060008473ffffffffffffffffffffffffffffffffffffffff1673ffffffffffffffffffffffffffffffffffffffff1681526020019081526020016000206000828254611b6a9190612238565b92505081905550505050565b600080600460008673ffffffffffffffffffffffffffffffffffffffff1673ffffffffffffffffffffffffffffffffffffffff1681526020019081526020016000205490506000600460008673ffffffffffffffffffffffffffffffffffffffff1673ffffffffffffffffffffffffffffffffffffffff1681526020019081526020016000205490506000670de0b6b3a76400008386611c1691906122c4565b611c209190612335565b905060006064600583611c3391906122c4565b611c3d9190612335565b905060008183611c4d91906121c2565b905083670de0b6b3a764000082611c6491906122c4565b611c6e9190612335565b955050505050509392505050565b6000600260008573ffffffffffffffffffffffffffffffffffffffff1673ffffffffffffffffffffffffffffffffffffffff16815260200190815260200160002060008473ffffffffffffffffffffffffffffffffffffffff1673ffffffffffffffffffffffffffffffffffffffff16815260200190815260200160002054905081811015611d37576040517f3a23d82500000000000000000000000000000000000000000000000000000000815260040160405180910390fd5b81600260008673ffffffffffffffffffffffffffffffffffffffff1673ffffffffffffffffffffffffffffffffffffffff16815260200190815260200160002060008573ffffffffffffffffffffffffffffffffffffffff1673ffffffffffffffffffffffffffffffffffffffff1681526020019081526020016000206000828254611dc39190612238565b9250508190555060008373ffffffffffffffffffffffffffffffffffffffff1663a9059cbb33856040518363ffffffff1660e01b8152600401611e0792919061226c565b6020604051808303816000875af1158015611e26573d6000803e3d6000fd5b505050506040513d601f19601f82011682018060405250810190611e4a9190612166565b905080611e83576040517f90b8ec1800000000000000000000000000000000000000000000000000000000815260040160405180910390fd5b5050505050565b600033905090565b600080fd5b600073ffffffffffffffffffffffffffffffffffffffff82169050919050565b6000611ec282611e97565b9050919050565b611ed281611eb7565b8114611edd57600080fd5b50565b600081359050611eef81611ec9565b92915050565b60008060408385031215611f0c57611f0b611e92565b5b6000611f1a85828601611ee0565b9250506020611f2b85828601611ee0565b9150509250929050565b6000819050919050565b611f4881611f35565b82525050565b6000602082019050611f636000830184611f3f565b92915050565b611f7281611f35565b8114611f7d57600080fd5b50565b600081359050611f8f81611f69565b92915050565b60008060408385031215611fac57611fab611e92565b5b6000611fba85828601611ee0565b9250506020611fcb85828601611f80565b9150509250929050565b600060208284031215611feb57611fea611e92565b5b6000611ff984828501611ee0565b91505092915050565b60006060820190506120176000830186611f3f565b6120246020830185611f3f565b6120316040830184611f3f565b949350505050565b61204281611eb7565b82525050565b600060208201905061205d6000830184612039565b92915050565b6000806000806080858703121561207d5761207c611e92565b5b600061208b87828801611ee0565b945050602061209c87828801611ee0565b93505060406120ad87828801611ee0565b92505060606120be87828801611f80565b91505092959194509250565b6000602082840312156120e0576120df611e92565b5b60006120ee84828501611f80565b91505092915050565b600060608201905061210c6000830186612039565b6121196020830185612039565b6121266040830184611f3f565b949350505050565b60008115159050919050565b6121438161212e565b811461214e57600080fd5b50565b6000815190506121608161213a565b92915050565b60006020828403121561217c5761217b611e92565b5b600061218a84828501612151565b91505092915050565b7f4e487b7100000000000000000000000000000000000000000000000000000000600052601160045260246000fd5b60006121cd82611f35565b91506121d883611f35565b92508282019050808211156121f0576121ef612193565b5b92915050565b60008151905061220581611f69565b92915050565b60006020828403121561222157612220611e92565b5b600061222f848285016121f6565b91505092915050565b600061224382611f35565b915061224e83611f35565b925082820390508181111561226657612265612193565b5b92915050565b60006040820190506122816000830185612039565b61228e6020830184611f3f565b9392505050565b7f4e487b7100000000000000000000000000000000000000000000000000000000600052603260045260246000fd5b60006122cf82611f35565b91506122da83611f35565b92508282026122e881611f35565b915082820484148315176122ff576122fe612193565b5b5092915050565b7f4e487b7100000000000000000000000000000000000000000000000000000000600052601260045260246000fd5b600061234082611f35565b915061234b83611f35565b92508261235b5761235a612306565b5b828204905092915050565b600060608201905061237b6000830186612039565b6123886020830185611f3f565b6123956040830184611f3f565b94935050505056fea26469706673582212207d8bb509044a619e53da51d9aeefc4b5b48b11b744ab5af1c0767838fb98d7dc64736f6c634300081c0033",
  "linkReferences": {},
  "deployedLinkReferences": {}
}